:100000000C9463000C948B000C948B000C948C0665
:100010000C948C060C948C060C948B000C948B0026
:100020000C948B000C948B000C948B000C948B0024
:100030000C948B000C948B000C948B000C948B0014
:100040000C948B040C948B000C9497030C94710308
:100050000C948B000C948B000C948B000C948B00F4
:100060000C94D5040C948B000000000024002700A1
:100070002A0000000008000201000003040700003D
:1000800000000000000000000000250028002B00F8
:1000900000000000230026002900040404040404D6
:1000A0000404020202020202030303030303010227
:1000B00004081020408001020408102001020408F6
:1000C0001020E10B110811241FBECFEFD8E0DEBFD6
:1000D000CDBF13E0A0E0B1E0E2E7FAE102C0059095
:1000E0000D92AC30B107D9F724E0ACE0B3E001C029
:1000F0001D92A93BB207E1F710E0C2E6D0E004C0D0
:100100002197FE010E94210DC136D107C9F70E9437
:100110001B080C942C0D0C940000CF92DF92EF92F0
:10012000FF920F931F93CF93DF936C017A018B01A2
:10013000C0E0D0E0CE15DF0589F0D8016D918D01CA
:10014000D601ED91FC910190F081E02DC601099559
:10015000892B11F47E0102C02196ECCFC701DF91FB
:10016000CF911F910F91FF90EF90DF90CF90089566
:10017000FC01918D828D981761F0828DDF01A80FAF
:10018000B11D5D968C91928D9F5F9F73928F90E0D1
:1001900008958FEF9FEF0895FC01918D828D981740
:1001A00031F0828DE80FF11D858D90E008958FEF7D
:1001B0009FEF0895FC01918D228D892F90E0805C46
:1001C0009F4F821B91098F739927089589ED93E0C2
:1001D0000E94DA0021E0892B09F420E0822F0895A3
:1001E000FC01848DDF01A80FB11DA35ABF4F2C91D4
:1001F000848D90E001968F739927848FA689B789A3
:100200002C93A089B1898C9180648C93938D848D7B
:10021000981306C00288F389E02D80818F7D80834A
:100220000895EF92FF920F931F93CF93DF93EC010A
:1002300081E0888F9B8D8C8D981305C0E889F989A2
:10024000808185FD24C0F62E0B8D10E00F5F1F4FBF
:100250000F731127E02E8C8DE8120CC00FB607FC2F
:10026000FACFE889F989808185FFF5CFCE010E9418
:10027000F000F1CF8B8DFE01E80FF11DE35AFF4F27
:10028000F0820B8FEA89FB898081806207C0EE894A
:10029000FF896083E889F98980818064808381E0B7
:1002A00090E0DF91CF911F910F91FF90EF90089513
:1002B000CF93DF93EC01888D8823C9F0EA89FB890D
:1002C000808185FD05C0A889B9898C9186FD0FC004
:1002D0000FB607FCF5CF808185FFF2CFA889B989D9
:1002E0008C9185FFEDCFCE010E94F000E7CFDF912A
:1002F000CF91089580E090E0892B29F00E94E600DC
:1003000081110C9400000895833081F028F481302D
:1003100099F08230A1F008958730A9F08830B9F0C3
:100320008430D1F4809180008F7D03C08091800063
:100330008F7780938000089584B58F7702C084B54D
:100340008F7D84BD08958091B0008F7703C0809128
:10035000B0008F7D8093B000089585ED8093BC0040
:100360008091BC0084FDFCCF1092C603089540919B
:100370006E03262F30E0240F311D21323105DCF4CD
:100380002091C6032430C9F4FC0180E090E0861778
:1003900058F430916E032191DC01A45BBC4FA30F94
:1003A000B11D2C930196F3CF80916E03680F60937B
:1003B0006E0380E0089581E0089582E00895089535
:1003C00081E090E03091CA032091C903321710F404
:1003D00080E090E091958195910908958091CA03FC
:1003E0009091C903891730F48F5F8093CA0380E02E
:1003F00090E008958FEF9FEF08958091C90390E0FA
:100400002091CA03821B91090895CF93DF9300D0F6
:10041000CDB7DEB7CB01642F49835A830E94B70161
:100420004981842F5A81952F0F900F90DF91CF91A2
:100430000895CF93DF931F92CDB7DEB7698361E054
:10044000CE0101960E94B70181E090E00F90DF910C
:10045000CF9108952091C2033091C3032817390723
:1004600071F49091C0038091C103981741F0E0911D
:10047000C003F0E0E45FFC4F808190E008958FEFCF
:100480009FEF089508951F93CF93DF93DC015C964F
:100490002D913C915D972115310539F481E090E073
:1004A00013969C938E9312973DC05196ED91FC91BB
:1004B000529750969C915097892F80951FB75E96C2
:1004C0004C915E9741FB772770F941FD6095F89458
:1004D0004081772311F0492B01C048234083E90173
:1004E0002197F1F748E0508160FF02C0592B01C00D
:1004F00058235083E9012197F1F76695415099F708
:10050000772321F090818923808303C08081982BF9
:1005100090831FBF5C968D919C915D970197F1F739
:1005200021E030E0C901DF91CF911F910895209122
:10053000C2033091C3032817390771F48091C103B6
:100540002091C00390E0805C9F4F821B910960E482
:1005500070E00E94D70C089580E090E0089520910B
:10056000C2033091C30328173907B9F49091C0032F
:100570008091C103981789F0E091C003F0E0E45F37
:10058000FC4F80812091C00330E02F5F3F4F2F73DD
:1005900033272093C00390E008958FEF9FEF0895D5
:1005A0000E94270D6115710579F0FB010190002073
:1005B000E9F73197AF01461B570BDC01ED91FC9138
:1005C0000280F381E02D099480E090E008954F923D
:1005D0005F926F927F92EF92FF920F931F93CF9350
:1005E000DF93CDB7DEB7A1970FB6F894DEBF0FBE8D
:1005F000CDBF7C01FA01CB0119A2223008F42AE018
:100600008E010F5D1F4F422E512C612C712CBF01AA
:10061000A30192010E94EB0CF901CA0101501109DA
:100620006A3014F4605D01C0695CD8016C93232BBF
:10063000242B252B61F7B801C7010E94D202A19695
:100640000FB6F894DEBF0FBECDBFDF91CF911F91E3
:100650000F91FF90EF907F906F905F904F90089573
:10066000CF92DF92EF92FF920F931F93CF93DF937E
:10067000EC016A017B01E881F9810190F081E02DB4
:100680006DE209958C0144275527BA014C195D0983
:100690006E097F092AE0CE010E94E702800F911FB8
:1006A000DF91CF911F910F91FF90EF90DF90CF904E
:1006B000089568E371E00C94D2020F931F93CF93D7
:1006C000DF93EC010E94D2028C01CE010E945903FB
:1006D000800F911FDF91CF911F910F9108950C947E
:1006E000D2021F920F920FB60F9211242F933F93B5
:1006F0004F935F936F937F938F939F93AF93BF932A
:10070000EF93FF9389ED93E00E94F000FF91EF914A
:10071000BF91AF919F918F917F916F915F914F9119
:100720003F912F910F900FBE0F901F9018951F9221
:100730000F920FB60F9211242F938F939F93EF93E5
:10074000FF93E091E903F091EA038081E091EF03E8
:10075000F091F00382FD12C090818091F2038F5FCF
:100760008F732091F303821751F0E091F203F0E0D0
:10077000E752FC4F958F8093F20301C08081FF9177
:10078000EF919F918F912F910F900FBE0F901F901F
:100790001895CF93DF93282F30E0F901EE58FF4FE3
:1007A0008491F901E255FF4FD491F901E656FF4FCC
:1007B000C491CC2391F081110E948401EC2FF0E0D0
:1007C000EE0FFF1FE057FF4FA591B491EC91ED2381
:1007D00081E090E021F480E002C080E090E0DF91D1
:1007E000CF9108951F93CF93DF93282F30E0F90125
:1007F000EE58FF4F8491F901E255FF4FD491F90172
:10080000E656FF4FC491CC23C9F0162F81110E94E8
:100810008401EC2FF0E0EE0FFF1FEA57FF4FA59188
:10082000B4918FB7F894111105C09C91ED2FE0950C
:10083000E92302C0EC91ED2BEC938FBFDF91CF91B8
:100840001F910895CF93DF93EC0160E08E810E94A9
:10085000F20361E08E810E94F20360E08E810E94CB
:10086000F2038BE891E00197F1F7DF91CF910895C2
:10087000CF93DF9390E0FC01E255FF4F2491FC0100
:10088000E656FF4F8491882361F190E0880F991F0D
:10089000FC01E859FF4FC591D491FC01EA57FF4F85
:1008A000A591B491611109C09FB7F89488812095F2
:1008B00082238883EC912E230BC0623061F49FB7B2
:1008C000F8943881822F809583238883EC912E2B96
:1008D0002C939FBF06C08FB7F894E8812E2B2883F6
:1008E0008FBFDF91CF9108958E3008F08E508770C2
:1008F000806480937C0080917A00806480937A0089
:1009000080917A0086FDFCCF80917800209179005B
:1009100090E0922B08951F920F920FB60F92112420
:100920002F933F938F939F93AF93BF938091BC037B
:100930009091BD03A091BE03B091BF033091BB0362
:1009400023E0230F2D3720F40196A11DB11D05C012
:1009500026E8230F0296A11DB11D2093BB038093AF
:10096000BC039093BD03A093BE03B093BF038091DB
:10097000B7039091B803A091B903B091BA0301965F
:10098000A11DB11D8093B7039093B803A093B90341
:10099000B093BA03BF91AF919F918F913F912F91E7
:1009A0000F900FBE0F901F9018951F920F920FB6C9
:1009B0000F9211242F933F934F935F936F937F93E5
:1009C0008F939F93AF93BF93EF93FF938091B90061
:1009D000887F803609F49CC068F5883209F45BC0D2
:1009E00090F4803109F454C038F4882309F4F6C037
:1009F000883009F44DC0F6C0883109F44CC080320B
:100A000009F45DC0EFC0803409F468C048F4803355
:100A100009F455C0883309F0E5C080939303D8C02A
:100A2000803509F44FC0883509F45DC0883409F079
:100A3000D9C0D6C0883909F4C7C0A8F4883709F4EA
:100A400067C038F4883609F463C0803709F460C0A1
:100A5000C9C0883809F4B8C0803909F45FC080384B
:100A600009F0C0C05BC0803B09F486C038F4803A0E
:100A700009F466C0883A09F47FC0B4C0803C09F428
:100A8000A7C0883C09F4A4C0883B09F48AC0AAC066
:100A90008091B60310C09091B5038091B40398176C
:100AA00070F5E091B50381E08E0F8093B503F0E01F
:100AB000EC56FC4F80818093BB0085EC86C0809310
:100AC00093038EC0E091B50381E08E0F8093B50350
:100AD0008091BB00F0E0EC56FC4F80839091B50311
:100AE0008091B4036EC0E091B50381E08E0F8093D6
:100AF000B5038091BB00F0E0EC56FC4F8083809101
:100B0000C50381116DC081E08093C40384EA61C094
:100B100083E08093C60310929203CFCF809192031B
:100B2000803208F051C0E091920381E08E0F8093F3
:100B300092038091BB00F0E0EE58FC4F8083BDCF64
:100B400085EC8093BC001092C603809192038032A2
:100B500030F4E0919203F0E0EE58FC4F1082609187
:100B6000920370E0E0917003F091710382E793E0EB
:100B700009951092920336C084E08093C6031092C8
:100B80006F0310926E03E0916C03F0916D03099571
:100B900080916E03811105C081E080936E031092F5
:100BA0004C03E0916F0381E08E0F80936F03F0E0C0
:100BB000E45BFC4F80818093BB0090916F03809138
:100BC0006E03981708F479CF85E88093BC000AC0BB
:100BD00085EC8093BC001092C60304C0109293036E
:100BE0000E94AD01FF91EF91BF91AF919F918F91C5
:100BF0007F916F915F914F913F912F910F900FBE19
:100C00000F901F901895CF92DF92EF92FF920F9363
:100C10001F93CF93DF937C016C0187E0C80ED11C3A
:100C2000C0E0D0E0062F10E0B8010C2E02C0759590
:100C300067950A94E2F76170F60181916F010E9455
:100C4000F2032196C430D10579F7C701DF91CF9126
:100C50001F910F91FF90EF90DF90CF900C942204A2
:100C6000CF92DF92EF92FF920F931F93CF93DF9378
:100C7000EC01F62E642F8C810E94F2038D818F3F50
:100C800019F060E00E94F2038F850F2D10E084FFC1
:100C900025C06E0187E0C80ED11CE12CF12CB801F3
:100CA0000E2C02C0759567950A94E2F76170F60103
:100CB00081916F010E94F203FFEFEF1AFF0A88E0B3
:100CC000E816F10461F7CE01DF91CF911F910F91EA
:100CD000FF90EF90DF90CF900C942204B80184E055
:100CE000759567958A95E1F7CE010E9403066F2DF1
:100CF000CE01DF91CF911F910F91FF90EF90DF9088
:100D0000CF900C94030641E00E94300681E090E011
:100D1000089540E00C9430061F920F920FB60F9288
:100D200011242F933F934F935F936F937F938F93F0
:100D30009F93AF93BF93EF93FF93E091C203F09122
:100D4000C303309709F451C0968DA685B785858574
:100D500091FF04C09C91892329F447C09C91892369
:100D600009F043C0A389B4899C9185898095892322
:100D70008C93868997890197F1F7608D718DA6858F
:100D8000B785558538E020E0CB010197F1F7822F38
:100D900090E095958795282F4C91452309F0206880
:100DA000315091F7868D81FD20958091C10390E0AF
:100DB00001968F7399273091C003381749F0A0919D
:100DC000C103B0E0A45FBC4F2C938093C10303C068
:100DD000868D8160868F828D938D0197F1F7A3892F
:100DE000B4899C918589892B8C93FF91EF91BF9158
:100DF000AF919F918F917F916F915F914F913F91B3
:100E00002F910F900FBE0F901F901895E091C20385
:100E1000F091C303E817F90769F4A389B4899C9199
:100E20008589809589238C931092C3031092C20305
:100E300081E0089580E008952091CD033091CE03A4
:100E40008091CB039091CC03293131056CF001974F
:100E5000C9F461E085E00E94F20361E08EE00E9447
:100E6000380460E08EE00CC0019761F461E08EE030
:100E70000E94380461E08EE00E94F20360E085E0A9
:100E80000C94F2030895EF92FF920F931F93CF9368
:100E9000DF93EC01423018F08F8588608F874B8B91
:100EA0001C8A80E48D8B6E8B70E0605C7F4F6F8B53
:100EB00061E08C810E9438048D818F3F19F061E0E0
:100EC0000E94380461E08E810E9438047E0187E030
:100ED000E80EF11C00E010E08F8584FD03C084E083
:100EE00090E002C088E090E0081719074CF461E038
:100EF000F70181917F010E9438040F5F1F4FECCFF3
:100F00008BE39DE00197F1F760E08C810E94F20392
:100F100060E08E810E94F2038D818F3F19F060E0C6
:100F20000E94F2036F8564FD1DC063E0CE010E9444
:100F300003060BE416E4C8010197F1F763E0CE0164
:100F40000E940306C8010197F1F763E0CE010E94F9
:100F5000030683E592E00197F1F762E0CE010E947B
:100F6000030616C06062CE010E9489068BE496E4F7
:100F70000197F1F76F856062CE010E94890683E5D3
:100F800092E00197F1F76F856062CE010E948906B9
:100F90006F856062CE010E94890684E0888B6CE0D8
:100FA000CE010E94890661E0CE010E9489068BE392
:100FB0009FE10197F1F782E0898B66E0CE01DF9136
:100FC000CF911F910F91FF90EF900C948906843080
:100FD00008F083E09091B404891710F08FEF890F27
:100FE000E82FF0E0EF55FB4F6489606881EA94E0F8
:100FF0000C9489060F931F93CF93DF93EC01E88144
:10100000F9810190F081E02D6AE109958C01CE0112
:101010000E945903800F911FDF91CF911F910F9173
:10102000089584E291E0909383048093820482E89F
:1010300094E00C940607789484B5826084BD84B5EE
:10104000816084BD85B5826085BD85B5816085BDC3
:1010500080916E00816080936E001092810080917B
:101060008100826080938100809181008160809303
:101070008100809180008160809380008091B10028
:1010800084608093B1008091B00081608093B00053
:1010900080917A00846080937A0080917A008260E7
:1010A00080937A0080917A00816080937A008091A9
:1010B0007A00806880937A001092C100E091E90381
:1010C000F091EA0382E08083E091E503F091E6038A
:1010D0001082E091E703F091E8038FEC8083109297
:1010E000F103E091ED03F091EE0386E08083E0915F
:1010F000EB03F091EC03808180618083E091EB034E
:10110000F091EC03808188608083E091EB03F091A3
:10111000EC03808180688083E091EB03F091EC0325
:1011200080818F7D808310929D0410929C04109288
:101130009B0410929A0410929904109298048DE9DD
:1011400091E090939F0480939E0490918E04963139
:1011500008F057C02DEB30E03093990420939804A9
:101160002BE931E030939B0420939A042CE231E088
:1011700030939D0420939C0420916800983050F097
:1011800031E09E3008F430E081E001C0880F3A95EC
:10119000EAF701C084E0822B80936800983038F031
:1011A0009E3040F0963148F020E030E008C02DE657
:1011B00030E005C02BE630E002C02CE630E0309392
:1011C000960420939504983030F481E001C0880F94
:1011D0009A95EAF70EC0292F30E09E3018F4285077
:1011E000310902C02E50310981E001C0880F2A95D3
:1011F000EAF78093970480919E0490919F04019751
:10120000F1F780919C0490919D04892B21F18091AC
:10121000C2039091C30324E082389207E1F0009763
:1012200011F00E9406078091A0048E7F8093A00495
:101230001092C1031092C00382E894E09093C3031C
:101240008093C203E0919504F0919604908180917F
:101250009704892B80836BE371E089ED93E00E9412
:101260005D0361E084E00E94380461E080E10E9457
:10127000380461E081E10E94380460E083E00E946C
:10128000380461E087E00E94380460E082E00E9458
:10129000380460E08FE00E94380461E08EE00E9434
:1012A000380461E085E00E94380444E064E181EAAA
:1012B00094E00E94430780E00E94E7076CE471E03D
:1012C00081EA94E00E946F0381E00E94E7076BE5EA
:1012D00071E081EA94E00E946F031092CA031092B9
:1012E000C9031092C8031092C7031092C60381E08D
:1012F0008093C5031092C40361E082E10E94F2036F
:1013000061E083E10E94F2038091B9008E7F8093B7
:10131000B9008091B9008D7F8093B90088E48093F3
:10132000B80085E48093BC0061E085E00E94380449
:1013300060E085E00E94F20360E08EE00E94F2032C
:10134000C4EFD1E082E00E94E7076CE671E081EA39
:1013500094E00E946F034091CD035091CE03052E7F
:10136000000C660B770B77FF05C081EA94E00E94C2
:10137000300305C02AE081EA94E00E94E70261E7B9
:1013800071E081EA94E00E946F0365E771E081EA11
:1013900094E00E946F038091D7039091D803892B2A
:1013A00019F06EE771E002C061EF72E081EA94E04B
:1013B0000E946F0383E00E94E70762E871E081EA20
:1013C00094E00E946F038091CB039091CC03892B12
:1013D00019F06EE771E002C061EF72E081EA94E01B
:1013E0000E946F038FE00E9474049C012C9FC00137
:1013F0002D9F900D3C9F900D112497FF02C08150AE
:101400009C4F892F880F880B959595959093CD03C8
:101410008093CE0383E00E94C9039093CC03809312
:10142000CB0382E00E94C9039093D8038093D70333
:1014300080E10E9474049093D6038093D50381E1E8
:101440000E9474049093D4038093D30387E00E9496
:10145000C9039093D2038093D10384E00E94C9030F
:101460009093D0038093CF0361E971E089ED93E01D
:101470000E946F034091CD035091CE03052E000CC6
:10148000660B770B77FF05C089ED93E00E94300370
:1014900005C02AE089ED93E00E94E70289ED93E020
:1014A0000E9459038091D7039091D803892B09F0AA
:1014B0005DC08091CB039091CC03019709F056C099
:1014C00061E081E10E94380460E081E10E94F20362
:1014D00061E080E10E94380461E080E10E94F20353
:1014E00061E087E00E94F20360E084E00E94F20382
:1014F0000E941C076FE971E089ED93E00E945D0393
:1015000061EB71E082E894E00E946F036CEB71E0A4
:1015100082E894E00E945D036CEB71E089ED93E05A
:101520000E945D0368ED71E082E894E00E945D0333
:101530006EE072E089ED93E00E945D036EEF71E072
:1015400089ED93E00E945D036BE172E089ED93E029
:101550000E945D0382E894E00E94FA0789ED93E01F
:101560000E94FA0782E894E00E9459038091D70311
:101570009091D803019709F05DC08091CB039091C1
:10158000CC03019709F056C061E081E10E94380464
:1015900060E081E10E94F20361E080E10E94380492
:1015A00061E080E10E94F20361E087E00E94F203C3
:1015B00061E084E00E94F2030E941C0768E272E08E
:1015C00089ED93E00E945D0361EB71E082E894E0B5
:1015D0000E946F036CEB71E082E894E00E945D036F
:1015E0006CEB71E089ED93E00E945D036CE372E0C7
:1015F00082E894E00E945D036EE072E089ED93E082
:101600000E945D036EEF71E089ED93E00E945D033F
:101610006EE772E089ED93E00E945D0382E894E05A
:101620000E94FA0789ED93E00E94FA0782E894E0AD
:101630000E9459038091CB039091CC03892B09F030
:101640005BC08091D7039091D803892B09F054C0D7
:1016500061E081E10E94380460E081E10E94F203D0
:1016600061E080E10E94380461E080E10E94F203C1
:1016700060E087E00E94F20360E084E00E94F203F1
:101680006AE872E089ED93E00E945D0361EB71E02E
:1016900082E894E00E946F036CEB71E082E894E0D2
:1016A0000E945D036CEB71E089ED93E00E945D03A5
:1016B0006FE972E082E894E00E945D0367EE72E0F9
:1016C00089ED93E00E945D0364ED72E089ED93E0A3
:1016D0000E945D036BE172E089ED93E00E945D037F
:1016E00082E894E00E94FA0789ED93E00E94FA07ED
:1016F00082E894E00E9459038091CB039091CC033F
:10170000892B09F05BC08091D7039091D803019792
:1017100009F054C061E081E10E94380460E081E199
:101720000E94F20361E080E10E94380461E080E100
:101730000E94F20360E087E00E94F20360E084E030
:101740000E94F20365EF72E089ED93E00E945D0371
:1017500061EB71E082E894E00E946F036CEB71E052
:1017600082E894E00E945D036CEB71E089ED93E008
:101770000E945D036FE972E082E894E00E945D03DD
:1017800067EE72E089ED93E00E945D0364ED72E024
:1017900089ED93E00E945D036BE172E089ED93E0D7
:1017A0000E945D0382E894E00E94FA0789ED93E0CD
:1017B0000E94FA0782E894E00E9459030E947A018D
:1017C000C1CDCF92DF92EF92FF921092DC03109284
:1017D000DB0398EEC92E93E0D92EE12CF12CC092B8
:1017E000DD03D092DE03E092DF03F092E00384E0B9
:1017F00091E09093DA038093D90385EC90E0909385
:10180000E6038093E50384EC90E09093E8038093F3
:10181000E70380EC90E09093EA038093E90381EC86
:1018200090E09093EC038093EB0382EC90E0909334
:10183000EE038093ED0386EC90E09093F0038093A9
:10184000EF031092F2031092F3031092F40310923C
:10185000F5031092790410927804C0927A04D09221
:101860007B04E0927C04F0927D0484E191E090930B
:101870007704809376041092A4041092A30484E366
:1018800091E09093A2048093A1048DE08093A5043D
:101890008FEF8093A6048CE08093A7048BE0809365
:1018A000A8048AE08093A90489E08093AA0488E0D0
:1018B0008093AB041092AC041092AD041092AE046D
:1018C0001092AF041092B00441E060E181EA94E02C
:1018D0000E9443071092850410928404C0928604EB
:1018E000D0928704E0928804F092890484E291E027
:1018F0009093830480938204109299041092980428
:1019000010929B0410929A0410929D0410929C04D1
:1019100010929F0410929E046091A0046E7F6D7FD0
:101920006093A0046695617081E0682786E00E945C
:10193000F20361E086E00E943804E4EBF0E0E49119
:10194000E0939204E0EAF0E0E491F0E0EE0FFF1F94
:10195000EA57FF4F85919491909394048093930458
:1019600060E081E00E9438048091A00481FD04C001
:1019700061E081E00E94F20381E080938E04EFEA4F
:10198000F0E0E491E0938F04EBE9F0E0E491F0E023
:10199000EE0FFF1FE057FF4F8591949190939104B4
:1019A00080939004FF90EF90DF90CF90089597FB85
:1019B000072E16F4009407D077FD09D00E940D0D74
:1019C00007FC05D03EF4909581959F4F0895709542
:1019D00061957F4F0895A1E21A2EAA1BBB1BFD0142
:1019E0000DC0AA1FBB1FEE1FFF1FA217B307E407FE
:1019F000F50720F0A21BB30BE40BF50B661F771F56
:101A0000881F991F1A9469F7609570958095909535
:101A10009B01AC01BD01CF010895AA1BBB1B51E185
:101A200007C0AA1FBB1FA617B70710F0A61BB70B4E
:101A3000881F991F5A95A9F780959095BC01CD01F3
:101A40000895EE0FFF1F0590F491E02D099481E0B9
:101A500090E0F8940C942C0D10E0C2E6D0E004C0A5
:101A6000FE010E94210D2196C336D107C9F7F894D3
:021A7000FFCFA6
:101A72000000000011018D00DA00B800CC0058010E
:101A82000000000019020502FD01EE01E001DF0184
:101A92000000000043028D009702AF022A024202B8
:101AA2000000000083068D000D0A007C534D415258
:101AB20054204255494C44494E477C0009090909C2
:101AC20043313931333736313453000909534D41EB
:101AD2005254204255494C44494E470054203D201F
:101AE200002D4320004C69676874203D20004F4E52
:101AF2002000522F4F63637570616E6379203D2021
:101B02000054656D70657261747572653A200044A7
:101B120041592077697468204F63637570616E74F0
:101B22000041542B434D47463D310D004154202B7B
:101B320020434D4753203D20222B32363337383451
:101B4200363030393838220048494748204C494716
:101B5200485420494E54454E534954592D204C491E
:101B62004748545320415245204F46462C204D4F62
:101B720054494F4E2044455445435445440041493D
:101B820052434F4E204953204F4E004C4947485430
:101B9200204953204F4646004E4947485420776912
:101BA2007468204F63637570616E74004C4F5720E8
:101BB2004C4947485420494E54454E534954592D97
:101BC200204C494748545320415245204F4E2C2027
:101BD200414952434F4E204953204F4E2C204D4FE6
:101BE20054494F4E204445544543544544004C49C2
:101BF200474854204953204F4E00444159205769C9
:101C02007468204E6F204F63637570616E74004874
:101C1200494748204C4947485420494E54454E5361
:101C22004954592D204C494748545320415245208C
:101C32004F46462C20414952434F4E204953204F94
:101C420046462C204E4F204D4F54494F4E2044457E
:101C520054454354454400414952434F4E20495351
:101C6200204F4646004E4947485420576974682021
:0C1C72004E6F204F63637570616E74004C
:00000001FF
